S01700004763634170706C69636174696F6E312E737265635B
S11300000C942A000C9434000C9434000C943400A6
S11300100C9434000C9434000C9434000C9434008C
S11300200C9434000C9434000C9434000C9434007C
S11300300C9434000C9434000C9434000C9434006C
S11300400C9434000C9434000C9434000C9434005C
S11300500C94340011241FBECFE5D8E0DEBFCDBF21
S11300600E94A6000C94C1000C94000088B3826026
S113007088BB089588B3816088BB089588B38D7F59
S113008088BB089588B38E7F88BB089587B3836047
S113009087BB88B3836088BB08950E943E008DE0CF
S11300A08A95F1F700000E94420008950E943A00E8
S11300B08DE08A95F1F700000E9436008DE08A9564
S11300C0F1F700000895882319F00E94360002C059
S11300D00E943E0082E08A95F1F700C00E943A0037
S11300E08DE08A95F1F700000E94420082E08A9533
S11300F0F1F700C008951F93CF93DF93182FC0E04A
S1130100D0E008C0812F881F8827881F0E946300C1
S1130110110F2196C830D105ACF3DF91CF911F9117
S1130120089587B38D7F87BB0E94360082E08A954D
S1130130F1F700C00E943A008DE08A95F1F70000C3
S11301400E94420087B3826087BB089514BA8FEF80
S113015085BB0E9446000E944D0080EA0E947B00FD
S11301600E94910083B380950E947B000E949100BD
S11301700E9456008FE19EE40197F1F700C0000051
S1090180EACFF894FFCF62
S9030000FC
