:100000000C942A000C9434000C9434000C943400AA
:100010000C9434000C9434000C9434000C94340090
:100020000C9434000C9434000C9434000C94340080
:100030000C9434000C9434000C9434000C94340070
:100040000C9434000C9434000C9434000C94340060
:100050000C94340011241FBECFE5D8E0DEBFCDBF25
:100060000E9485000C94A6000C94000087B38C7F3E
:1000700087BB88B3836088BB0895B199FECFB09BDE
:10008000FCCF8DE08A95F1F7000081E00895B09BE8
:10009000FECF82E08A95F1F700C086B38695817025
:1000A00092E09A95F1F700C0B099FECF08950F93B2
:1000B0001F93CF9300E010E080E007C0C82FCC0F63
:1000C0000E9447008C2B0F5F1F4F08301105B4F3BF
:1000D000CF911F910F91089588B38D7F88BB87B30F
:1000E000826087BBB09BFECF82E08A95F1F700C0AB
:1000F000B099FECF82E08A95F1F700C087B38D7F7B
:1001000087BB88B3826088BB08958FEF84BB15BA24
:100110000E9436000E943D008823E1F30E945700B0
:10012000C82F0E946C008C2F8695803599F7C0FDF2
:10013000F1CF0E945700C82F0E946C00C5BB8FE111
:100140009EE40197F1F700C00000E4CFF894FFCFE0
:00000001FF
